{
  "_format": "hh-sol-artifact-1",
  "contractName": "WordUploader",
  "sourceName": "contracts/WordUploader.sol",
  "abi": [
    {
      "inputs": [],
      "name": "getWords",
      "outputs": [
        {
          "internalType": "string[]",
          "name": "",
          "type": "string[]"
        }
      ],
      "stateMutability": "view",
      "type": "function"
    },
    {
      "inputs": [
        {
          "internalType": "string",
          "name": "_word",
          "type": "string"
        }
      ],
      "name": "uploadWord",
      "outputs": [],
      "stateMutability": "nonpayable",
      "type": "function"
    },
    {
      "inputs": [
        {
          "internalType": "uint256",
          "name": "",
          "type": "uint256"
        }
      ],
      "name": "words",
      "outputs": [
        {
          "internalType": "string",
          "name": "",
          "type": "string"
        }
      ],
      "stateMutability": "view",
      "type": "function"
    }
  ],
  "bytecode": "0x608060405234801561001057600080fd5b50610956806100206000396000f3fe608060405234801561001057600080fd5b50600436106100415760003560e01c8063884fc83814610046578063dca7bcbe14610076578063e563213f14610094575b600080fd5b610060600480360381019061005b91906102b7565b6100b0565b60405161006d9190610374565b60405180910390f35b61007e61015c565b60405161008b91906104a2565b60405180910390f35b6100ae60048036038101906100a991906105f9565b610235565b005b600081815481106100c057600080fd5b9060005260206000200160009150905080546100db90610671565b80601f016020809104026020016040519081016040528092919081815260200182805461010790610671565b80156101545780601f1061012957610100808354040283529160200191610154565b820191906000526020600020905b81548152906001019060200180831161013757829003601f168201915b505050505081565b60606000805480602002602001604051908101604052809291908181526020016000905b8282101561022c57838290600052602060002001805461019f90610671565b80601f01602080910402602001604051908101604052809291908181526020018280546101cb90610671565b80156102185780601f106101ed57610100808354040283529160200191610218565b820191906000526020600020905b8154815290600101906020018083116101fb57829003601f168201915b505050505081526020019060010190610180565b50505050905090565b600081908060018154018082558091505060019003906000526020600020016000909190919091509081610269919061084e565b5050565b6000604051905090565b600080fd5b600080fd5b6000819050919050565b61029481610281565b811461029f57600080fd5b50565b6000813590506102b18161028b565b92915050565b6000602082840312156102cd576102cc610277565b5b60006102db848285016102a2565b91505092915050565b600081519050919050565b600082825260208201905092915050565b60005b8381101561031e578082015181840152602081019050610303565b60008484015250505050565b6000601f19601f8301169050919050565b6000610346826102e4565b61035081856102ef565b9350610360818560208601610300565b6103698161032a565b840191505092915050565b6000602082019050818103600083015261038e818461033b565b905092915050565b600081519050919050565b600082825260208201905092915050565b6000819050602082019050919050565b600082825260208201905092915050565b60006103de826102e4565b6103e881856103c2565b93506103f8818560208601610300565b6104018161032a565b840191505092915050565b600061041883836103d3565b905092915050565b6000602082019050919050565b600061043882610396565b61044281856103a1565b935083602082028501610454856103b2565b8060005b858110156104905784840389528151610471858261040c565b945061047c83610420565b925060208a01995050600181019050610458565b50829750879550505050505092915050565b600060208201905081810360008301526104bc818461042d565b905092915050565b600080fd5b600080fd5b7f4e487b7100000000000000000000000000000000000000000000000000000000600052604160045260246000fd5b6105068261032a565b810181811067ffffffffffffffff82111715610525576105246104ce565b5b80604052505050565b600061053861026d565b905061054482826104fd565b919050565b600067ffffffffffffffff821115610564576105636104ce565b5b61056d8261032a565b9050602081019050919050565b82818337600083830152505050565b600061059c61059784610549565b61052e565b9050828152602081018484840111156105b8576105b76104c9565b5b6105c384828561057a565b509392505050565b600082601f8301126105e0576105df6104c4565b5b81356105f0848260208601610589565b91505092915050565b60006020828403121561060f5761060e610277565b5b600082013567ffffffffffffffff81111561062d5761062c61027c565b5b610639848285016105cb565b91505092915050565b7f4e487b7100000000000000000000000000000000000000000000000000000000600052602260045260246000fd5b6000600282049050600182168061068957607f821691505b60208210810361069c5761069b610642565b5b50919050565b60008190508160005260206000209050919050565b60006020601f8301049050919050565b600082821b905092915050565b6000600883026107047fffffffffffffffffffffffffffffffffffffffffffffffffffffffffffffffff826106c7565b61070e86836106c7565b95508019841693508086168417925050509392505050565b6000819050919050565b600061074b61074661074184610281565b610726565b610281565b9050919050565b6000819050919050565b61076583610730565b61077961077182610752565b8484546106d4565b825550505050565b600090565b61078e610781565b61079981848461075c565b505050565b5b818110156107bd576107b2600082610786565b60018101905061079f565b5050565b601f821115610802576107d3816106a2565b6107dc846106b7565b810160208510156107eb578190505b6107ff6107f7856106b7565b83018261079e565b50505b505050565b600082821c905092915050565b600061082560001984600802610807565b1980831691505092915050565b600061083e8383610814565b9150826002028217905092915050565b610857826102e4565b67ffffffffffffffff8111156108705761086f6104ce565b5b61087a8254610671565b6108858282856107c1565b600060209050601f8311600181146108b857600084156108a6578287015190505b6108b08582610832565b865550610918565b601f1984166108c6866106a2565b60005b828110156108ee578489015182556001820191506020850194506020810190506108c9565b8683101561090b5784890151610907601f891682610814565b8355505b6001600288020188555050505b50505050505056fea264697066735822122065be8e0eefa58ef2156cf82c878883d8bb139373464389e64417dace643c3b9c64736f6c63430008180033",
  "linkReferences": {},
  "deployedLinkReferences": {}
}